{
  "contractName": "DataTypes",
  "abi": [
    {
      "inputs": [],
      "name": "getStateVariables",
      "outputs": [
        {
          "internalType": "uint256",
          "name": "",
          "type": "uint256"
        },
        {
          "internalType": "int256",
          "name": "",
          "type": "int256"
        },
        {
          "internalType": "uint256",
          "name": "",
          "type": "uint256"
        },
        {
          "internalType": "bool",
          "name": "",
          "type": "bool"
        },
        {
          "internalType": "address",
          "name": "",
          "type": "address"
        },
        {
          "internalType": "bytes32",
          "name": "",
          "type": "bytes32"
        },
        {
          "internalType": "string",
          "name": "",
          "type": "string"
        }
      ],
      "stateMutability": "view",
      "type": "function"
    }
  ],
  "bytecode": "0x608060405260096000557fffffffffffffffffffffffffffffffffffffffffffffffffffffffffffffffbc6001556011600260006101000a81548160ff021916908360ff1602179055506001600260016101000a81548160ff021916908315150217905550336002806101000a81548173ffffffffffffffffffffffffffffffffffffffff021916908373ffffffffffffffffffffffffffffffffffffffff1602179055507f68656c6c6f0000000000000000000000000000000000000000000000000000006003556040518060400160405280600581526020017f68656c6c6f0000000000000000000000000000000000000000000000000000008152506004908161010c919061036f565b5034801561011957600080fd5b50610441565b600081519050919050565b7f4e487b7100000000000000000000000000000000000000000000000000000000600052604160045260246000fd5b7f4e487b7100000000000000000000000000000000000000000000000000000000600052602260045260246000fd5b600060028204905060018216806101a057607f821691505b6020821081036101b3576101b2610159565b5b50919050565b60008190508160005260206000209050919050565b60006020601f8301049050919050565b600082821b905092915050565b60006008830261021b7fffffffffffffffffffffffffffffffffffffffffffffffffffffffffffffffff826101de565b61022586836101de565b95508019841693508086168417925050509392505050565b6000819050919050565b6000819050919050565b600061026c6102676102628461023d565b610247565b61023d565b9050919050565b6000819050919050565b61028683610251565b61029a61029282610273565b8484546101eb565b825550505050565b600090565b6102af6102a2565b6102ba81848461027d565b505050565b5b818110156102de576102d36000826102a7565b6001810190506102c0565b5050565b601f821115610323576102f4816101b9565b6102fd846101ce565b8101602085101561030c578190505b610320610318856101ce565b8301826102bf565b50505b505050565b600082821c905092915050565b600061034660001984600802610328565b1980831691505092915050565b600061035f8383610335565b9150826002028217905092915050565b6103788261011f565b67ffffffffffffffff8111156103915761039061012a565b5b61039b8254610188565b6103a68282856102e2565b600060209050601f8311600181146103d957600084156103c7578287015190505b6103d18582610353565b865550610439565b601f1984166103e7866101b9565b60005b8281101561040f578489015182556001820191506020850194506020810190506103ea565b8683101561042c5784890151610428601f891682610335565b8355505b6001600288020188555050505b505050505050565b610397806104506000396000f3fe608060405234801561001057600080fd5b506004361061002b5760003560e01c8063dde89cf514610030575b600080fd5b610038610054565b60405161004b979695949392919061028b565b60405180910390f35b6000806000806000806060600054600154600260009054906101000a900460ff16600260019054906101000a900460ff1660028054906101000a900473ffffffffffffffffffffffffffffffffffffffff1660035460048460ff1694508080546100bd90610330565b80601f01602080910402602001604051908101604052809291908181526020018280546100e990610330565b80156101365780601f1061010b57610100808354040283529160200191610136565b820191906000526020600020905b81548152906001019060200180831161011957829003601f168201915b50505050509050965096509650965096509650965090919293949596565b6000819050919050565b61016781610154565b82525050565b6000819050919050565b6101808161016d565b82525050565b60008115159050919050565b61019b81610186565b82525050565b600073ffffffffffffffffffffffffffffffffffffffff82169050919050565b60006101cc826101a1565b9050919050565b6101dc816101c1565b82525050565b6000819050919050565b6101f5816101e2565b82525050565b600081519050919050565b600082825260208201905092915050565b60005b8381101561023557808201518184015260208101905061021a565b60008484015250505050565b6000601f19601f8301169050919050565b600061025d826101fb565b6102678185610206565b9350610277818560208601610217565b61028081610241565b840191505092915050565b600060e0820190506102a0600083018a61015e565b6102ad6020830189610177565b6102ba604083018861015e565b6102c76060830187610192565b6102d460808301866101d3565b6102e160a08301856101ec565b81810360c08301526102f38184610252565b905098975050505050505050565b7f4e487b7100000000000000000000000000000000000000000000000000000000600052602260045260246000fd5b6000600282049050600182168061034857607f821691505b60208210810361035b5761035a610301565b5b5091905056fea2646970667358221220d82820a9c5944c92d4aa4d3a17ade9d6b19289bd9dbb20fa8a03c4227b42b8f964736f6c63430008110033",
  "immutableReferences": {},
  "source": "// SPDX-License-Identifier: MIT\r\npragma solidity ^0.8.0;\r\n\r\n/*\r\n* @title Solidity data types\r\n* @author Michael Solomon\r\n* @notice A simply smart contract to demonstrate simple data types available in Solidity\r\n* \r\n*/\r\n\r\ncontract DataTypes {\r\n\r\n    uint x = 9;\r\n    int i = -68; \r\n    uint8 j = 17;\r\n    bool isEthereumCool = true; \r\n    address owner = msg.sender; // msg.sender is the Ethereum address of the account that sent this transaction\r\n    bytes32 bMsg = \"hello\";\r\n    string sMsg = \"hello\"; \r\n\r\n    function getStateVariables() public view returns (uint, int, uint, bool, address, bytes32, string memory) {\r\n        return (x, i, j, isEthereumCool, owner, bMsg, sMsg); \r\n    }\r\n\r\n}",
  "sourcePath": "C:\\Users\\Geckko\\gitHub\\Starting With Blockchain Solidity\\Starting_With_Blockchain_Solidity\\FirstProyect\\contracts\\DataTypes.sol",
  "compiler": {
    "name": "solc",
    "version": "0.8.17+commit.8df45f5f.Emscripten.clang"
  },
  "schemaVersion": "3.4.11",
  "updatedAt": "2023-02-09T11:32:33.771Z",
  "devdoc": {
    "kind": "dev",
    "methods": {},
    "version": 1
  },
  "userdoc": {
    "kind": "user",
    "methods": {},
    "version": 1
  }
}