{
    "contractName": "DataTypes",
    "abi": [
        {
            "inputs": [],
            "name": "getStateVariables",
            "outputs": [
                {
                    "internalType": "uint256",
                    "name": "",
                    "type": "uint256"
                },
                {
                    "internalType": "int256",
                    "name": "",
                    "type": "int256"
                },
                {
                    "internalType": "uint256",
                    "name": "",
                    "type": "uint256"
                },
                {
                    "internalType": "bool",
                    "name": "",
                    "type": "bool"
                },
                {
                    "internalType": "address",
                    "name": "",
                    "type": "address"
                },
                {
                    "internalType": "bytes32",
                    "name": "",
                    "type": "bytes32"
                },
                {
                    "internalType": "string",
                    "name": "",
                    "type": "string"
                }
            ],
            "stateMutability": "view",
            "type": "function"
        }
    ],
    "bytecode": "6009600055604319600155600280546201000033026001600160b01b0319909116176101111790556468656c6c6f60d81b600381905560c06040526005608090815260a0919091526004906100549082610106565b5034801561006157600080fd5b506101c5565b634e487b7160e01b600052604160045260246000fd5b600181811c9082168061009157607f821691505b6020821081036100b157634e487b7160e01b600052602260045260246000fd5b50919050565b601f82111561010157600081815260208120601f850160051c810160208610156100de5750805b601f850160051c820191505b818110156100fd578281556001016100ea565b5050505b505050565b81516001600160401b0381111561011f5761011f610067565b6101338161012d845461007d565b846100b7565b602080601f83116001811461016857600084156101505750858301515b600019600386901b1c1916600185901b1785556100fd565b600085815260208120601f198616915b8281101561019757888601518255948401946001909101908401610178565b50858210156101b55787850151600019600388901b60f8161c191681555b5050505050600190811b01905550565b61022d806101d46000396000f3fe608060405234801561001057600080fd5b506004361061002b5760003560e01c8063dde89cf514610030575b600080fd5b610038610054565b60405161004b9796959493929190610136565b60405180910390f35b60008054600154600254600354600480548695869586958695869560609560ff80851694610100810490911693620100009091046001600160a01b0316929091819061009f906101bd565b80601f01602080910402602001604051908101604052809291908181526020018280546100cb906101bd565b80156101185780601f106100ed57610100808354040283529160200191610118565b820191906000526020600020905b8154815290600101906020018083116100fb57829003601f168201915b50505050509050965096509650965096509650965090919293949596565b878152600060208881840152876040840152861515606084015260018060a01b03861660808401528460a084015260e060c084015283518060e085015260005b818110156101935785810183015185820161010001528201610176565b506101009150600082828601015281601f19601f8301168501019250505098975050505050505050565b600181811c908216806101d157607f821691505b6020821081036101f157634e487b7160e01b600052602260045260246000fd5b5091905056fea2646970667358221220eeb3211813549d9fd631aee10daab69f8b5e8ce4327e914f03526a2453e010a164736f6c63430008110033",
    "sourcePath": "c:/Users/Geckko/gitHub/Starting With Blockchain Solidity/Starting_With_Blockchain_Solidity/FirstProyect/contracts/DataTypes.sol",
    "compiler": {
        "name": "solc",
        "version": "0.8.17+commit.8df45f5f"
    },
    "functionHashes": {
        "getStateVariables()": "dde89cf5"
    },
    "gasEstimates": {
        "creation": {
            "codeDepositCost": "111400",
            "executionCost": "infinite",
            "totalCost": "infinite"
        },
        "external": {
            "getStateVariables()": "infinite"
        }
    }
}