{
    "contractName": "Migrations",
    "abi": [
        {
            "inputs": [],
            "name": "getHelloMessage1",
            "outputs": [
                {
                    "internalType": "string",
                    "name": "",
                    "type": "string"
                }
            ],
            "stateMutability": "view",
            "type": "function"
        },
        {
            "inputs": [],
            "name": "last_completed_migration",
            "outputs": [
                {
                    "internalType": "uint256",
                    "name": "",
                    "type": "uint256"
                }
            ],
            "stateMutability": "view",
            "type": "function"
        },
        {
            "inputs": [
                {
                    "internalType": "uint256",
                    "name": "completed",
                    "type": "uint256"
                }
            ],
            "name": "setCompleted",
            "outputs": [],
            "stateMutability": "nonpayable",
            "type": "function"
        }
    ],
    "bytecode": "60c06040526011608090815270090cad8d8de40aedee4d8c840c4d2e8c6d607b1b60a05260009061003090826100e2565b5034801561003d57600080fd5b506101a1565b634e487b7160e01b600052604160045260246000fd5b600181811c9082168061006d57607f821691505b60208210810361008d57634e487b7160e01b600052602260045260246000fd5b50919050565b601f8211156100dd57600081815260208120601f850160051c810160208610156100ba5750805b601f850160051c820191505b818110156100d9578281556001016100c6565b5050505b505050565b81516001600160401b038111156100fb576100fb610043565b61010f816101098454610059565b84610093565b602080601f831160018114610144576000841561012c5750858301515b600019600386901b1c1916600185901b1785556100d9565b600085815260208120601f198616915b8281101561017357888601518255948401946001909101908401610154565b50858210156101915787850151600019600388901b60f8161c191681555b5050505050600190811b01905550565b6101f5806101b06000396000f3fe608060405234801561001057600080fd5b50600436106100415760003560e01c8063445df0ac14610046578063fd24495114610062578063fdacd57614610077575b600080fd5b61004f60015481565b6040519081526020015b60405180910390f35b61006a61008c565b604051610059919061011e565b61008a61008536600461016c565b600155565b005b60606000805461009b90610185565b80601f01602080910402602001604051908101604052809291908181526020018280546100c790610185565b80156101145780601f106100e957610100808354040283529160200191610114565b820191906000526020600020905b8154815290600101906020018083116100f757829003601f168201915b5050505050905090565b600060208083528351808285015260005b8181101561014b5785810183015185820160400152820161012f565b506000604082860101526040601f19601f8301168501019250505092915050565b60006020828403121561017e57600080fd5b5035919050565b600181811c9082168061019957607f821691505b6020821081036101b957634e487b7160e01b600052602260045260246000fd5b5091905056fea264697066735822122083c6b25e4c19203f2896f92be8d88ba2db813e699c26b3827ee2afc55cb1a7af64736f6c63430008110033",
    "sourcePath": "c:/Users/Geckko/MyWorkSpace/contracts/Migrations.sol",
    "compiler": {
        "name": "solc",
        "version": "0.8.17+commit.8df45f5f"
    },
    "functionHashes": {
        "getHelloMessage1()": "fd244951",
        "last_completed_migration()": "445df0ac",
        "setCompleted(uint256)": "fdacd576"
    },
    "gasEstimates": {
        "creation": {
            "codeDepositCost": "100200",
            "executionCost": "infinite",
            "totalCost": "infinite"
        },
        "external": {
            "getHelloMessage1()": "infinite",
            "last_completed_migration()": "2262",
            "setCompleted(uint256)": "22334"
        }
    }
}